:020000040000FA
:100000000C9462000C948A000C948A000C948A0070
:100010000C948A000C948A000C948A000C948A0038
:100020000C948A000C948A000C948A000C948A0028
:100030000C948A000C948A000C948A000C948A0018
:100040000C94F7020C948A000C94C5020C949F0245
:100050000C948A000C948A000C948A000C948A00F8
:100060000C948A000C948A000000000023002600F3
:10007000290000000008000201000003040700003E
:1000800000000000000000000000250028002B00F8
:1000900000000000240027002A00040404040404D3
:1000A0000404020202020202030303030303010227
:1000B00004081020408001020408102001020408F6
:1000C0001020410311241FBECFEFD8E0DEBFCDBF0B
:1000D00011E0A0E0B1E0EAE0FEE002C005900D9280
:1000E000A433B107D9F721E0A4E3B1E001C01D9228
:1000F000AE3DB207E1F710E0C2E6D0E004C02197C0
:10010000FE010E94FD06C136D107C9F70E94810396
:100110000C9403070C940000AF92BF92CF92DF9231
:10012000EF92FF920F931F93CF93DF936C017B01AC
:100130008B01040F151FEB015E01AE18BF08C0173D
:10014000D10759F06991D601ED91FC910190F081B0
:10015000E02DC6010995892B79F7C501DF91CF9173
:100160001F910F91FF90EF90DF90CF90BF90AF90D5
:100170000895FC01538D448D252F30E0842F90E0AD
:10018000821B930B541710F0CF9608950197089592
:10019000FC01918D828D981761F0A28DAE0FBF2F5B
:1001A000B11D5D968C91928D9F5F9F73928F90E0B1
:1001B00008958FEF9FEF0895FC01918D828D981720
:1001C00031F0828DE80FF11D858D90E008958FEF5D
:1001D0009FEF0895FC01918D228D892F90E0805C26
:1001E0009F4F821B91098F739927089589E391E0AE
:1001F0000E94EA0021E0892B09F420E0822F089573
:1002000080E090E0892B29F00E94F60081110C9487
:1002100000000895FC01A48DA80FB92FB11DA35AA9
:10022000BF4F2C91848D90E001968F739927848F16
:10023000A689B7892C93A089B1898C918370806439
:100240008C93938D848D981306C00288F389E02DDA
:1002500080818F7D80830895EF92FF920F931F938B
:10026000CF93DF93EC0181E0888F9B8D8C8D981369
:100270001AC0E889F989808185FF15C09FB7F89475
:10028000EE89FF896083E889F989808183708064C1
:1002900080839FBF81E090E0DF91CF911F910F910C
:1002A000FF90EF900895F62E0B8D10E00F5F1F4F1B
:1002B0000F731127E02E8C8D8E110CC00FB607FC2A
:1002C000FACFE889F989808185FFF5CFCE010E94B8
:1002D0000A01F1CFEB8DEC0FFD2FF11DE35AFF4F1B
:1002E000F0829FB7F8940B8FEA89FB898081806246
:1002F000CFCFCF93DF93EC01888D8823B9F0AA8903
:10030000BB89E889F9898C9185FD03C0808186FDD0
:100310000DC00FB607FCF7CF8C9185FFF2CF80811F
:1003200085FFEDCFCE010E940A01E9CFDF91CF9189
:100330000895833081F028F4813099F08230A9F05B
:1003400008958730A9F08830C9F08430B1F48091E5
:1003500080008F7D03C0809180008F778093800024
:10036000089584B58F7784BD089584B58F7DFBCFC4
:100370008091B0008F778093B00008958091B00095
:100380008F7DF9CFCF92DF92EF92FF920F931F9361
:10039000CF93DF932FB7F8944091D6015091D701B6
:1003A0006091D8017091D9012FBF092E000CAA0BC2
:1003B000BB0B0091DA011091DB012091DC0130913F
:1003C000DD01401B510B620B730B481759076A077D
:1003D0007B0708F455C02FE7C22E20E0D22EF6018D
:1003E00084913BEBE32E30E0F32EF7010491C7EA52
:1003F000D0E0FE011491112309F44BC081110E9439
:100400009901E12FF0E0EE0FFF1FE859FF4FA59192
:10041000B4918C91082391E080E009F490E0092FD9
:10042000182FF6018491F701E490FE01C491CC23CA
:10043000A1F081110E949901EC2FF0E0EE0FFF1F57
:10044000EA57FF4FA591B4918FB7F8949C91012B77
:1004500019F1E094E922EC928FBF2FB7F8948091C4
:10046000D6019091D701A091D801B091D9012FBFA9
:100470008093DA019093DB01A093DC01B093DD015E
:10048000DF91CF911F910F91FF90EF90DF90CF9070
:10049000089510E000E0C5CFE92ADDCFFC0101900E
:1004A0000020E9F73197AF01481B590BBC0189E3E4
:1004B00091E00C948C008F929F92AF92BF920F9319
:1004C0001F93CF93DF93CDB7DEB7A1970FB6F89404
:1004D000DEBF0FBECDBF19A2423008F44AE08E0144
:1004E0000F5D1F4F842E912CB12CA12CA5019401DE
:1004F0000E94DB06E62FB901CA01EA30F4F4E05DA0
:10050000D801EE938D01232B242B252B79F790E036
:1005100080E0109719F0CD010E944E02A1960FB60F
:10052000F894DEBF0FBECDBFDF91CF911F910F9129
:10053000BF90AF909F908F900895E95CE1CF1F929C
:100540000F920FB60F9211242F933F934F935F9307
:100550006F937F938F939F93AF93BF93EF93FF938B
:1005600089E391E00E940A01FF91EF91BF91AF9161
:100570009F918F917F916F915F914F913F912F91BB
:100580000F900FBE0F901F9018951F920F920FB6ED
:100590000F9211242F938F939F93EF93FF93E091EA
:1005A0004901F0914A018081E0914F01F0915001A1
:1005B00082FD1BC09081809152018F5F8F732091CB
:1005C0005301821741F0E0915201F0E0E75CFE4FE9
:1005D000958F80935201FF91EF919F918F912F9171
:1005E0000F900FBE0F901F9018958081F4CF1F922F
:1005F0000F920FB60F9211242F933F938F939F93D7
:10060000AF93BF938091D6019091D701A091D8016B
:10061000B091D9013091380123E0230F2D3758F5DF
:100620000196A11DB11D209338018093D6019093AE
:10063000D701A093D801B093D90180913401909152
:100640003501A0913601B09137010196A11DB11D70
:100650008093340190933501A0933601B093370114
:10066000BF91AF919F918F913F912F910F900FBEAE
:100670000F901F90189526E8230F0296A11DB11D1B
:10068000D2CFE9E3F1E01382128288EE93E0A0E09A
:10069000B0E084839583A683B78384E091E091835F
:1006A000808385EC90E09587848784EC90E0978741
:1006B000868780EC90E0918B808B81EC90E0938B2F
:1006C000828B82EC90E0958B848B86EC90E0978B0C
:1006D000868B118E128E138E148E2FB7F894809104
:1006E000D6019091D701A091D801B091D9012FBF27
:1006F0008093DA019093DB01A093DC01B093DD01DC
:100700000895789484B5826084BD84B5816084BD89
:1007100085B5826085BD85B5816085BD80916E009F
:10072000816080936E0010928100809181008260D0
:10073000809381008091810081608093810080910D
:1007400080008160809380008091B10084608093FC
:10075000B1008091B00081608093B00080917A00F8
:10076000846080937A0080917A00826080937A001E
:1007700080917A00816080937A0080917A0080680D
:1007800080937A001092C100EBEBF0E02491E7EA4D
:10079000F0E08491882399F090E0880F991FFC0184
:1007A000E057FF4FA591B491FC01EA57FF4F8591A7
:1007B00094918FB7F894EC91E22BEC938FBFE0917A
:1007C0004901F0914A0182E08083E0914501F09176
:1007D00046011082E0914701F09148018FEC80833F
:1007E00010925101E0914D01F0914E0186E080831D
:1007F000E0914B01F0914C01808180618083E09118
:100800004B01F0914C01808188608083E0914B0125
:10081000F0914C01808180688083E0914B01F091E0
:100820004C0180818F7D808310E4C0E0D0E0109384
:100830007C0080917A00806480937A0080917A00B5
:1008400086FDFCCF8091780060917900762F682F2B
:10085000072E000C880B990B0E94B40520E030E0B5
:1008600040E85AE30E94690620E030E040EA50E4A4
:100870000E94690620E030E040E05FE30E940A0544
:1008800020E030E048EC52E40E9469066B017C01F4
:1008900082E191E00E944E02A7019601C701B601D4
:1008A0000E94D606882321F180E291E00E944E0248
:1008B0008CE291E00E944E0281E391E00E944E02A0
:1008C000C701B6010E947C058AEF90E06E31710588
:1008D00014F084EF91E00E94C201209709F4A7CFA1
:1008E0000E94F600882309F4A2CF0E9400009FCF47
:1008F00046015701E894B7F82FEF3FEF4FE75FE766
:10090000C501B4010E94D60681110DC02FEF3FEF43
:100910004FE75FE7C501B4010E94770518161CF484
:1009200084E291E0C3CF2FEF3FEF4FE75FE4C701D1
:10093000B6010E94640618161CF488E291E0B6CF56
:100940002FEF3FEF4FE75FECC701B6010E9477053D
:1009500087FDF3CF20E030E0A901C701B6010E9476
:10096000770587FF54C06DE289E391E00E942C0176
:10097000C701B60190582AE037ED43EA5BE30E94D5
:100980000B052B013C010E9483054B015C010E9479
:10099000B2059B01AC01C301B2010E940A052B0103
:1009A0003C014AE0C501B4010E945B026EE289E3AA
:1009B00091E00E942C0120E030E040E251E4C301CC
:1009C000B2010E9469062B013C010E9483054B0184
:1009D000B12CA12C4AE0C501B4010E945B02C50103
:1009E000B4010E94B2059B01AC01C301B2010E9497
:1009F0000A0520E030E040E251E40E9469060E94CE
:100A0000830590E080E04AE00E945B0251CFC7017D
:100A1000B601B1CF5058BB27AA270E9422050C94DB
:100A20002A060E941C0638F00E94230620F039F4A2
:100A30009F3F19F426F40C9419060EF4E095E7FB99
:100A40000C941306E92F0E943B0658F3BA1762076D
:100A500073078407950720F079F4A6F50C945D06DA
:100A60000EF4E0950B2EBA2FA02D0B01B9019001C9
:100A70000C01CA01A0011124FF27591B99F0593F0D
:100A800050F4503E68F11A16F040A22F232F342F55
:100A90004427585FF3CF469537952795A795F040A3
:100AA0005395C9F77EF41F16BA0B620B730B840BB8
:100AB000BAF09150A1F0FF0FBB1F661F771F881F70
:100AC000C2F70EC0BA0F621F731F841F48F48795C8
:100AD00077956795B795F7959E3F08F0B0CF9395BA
:100AE000880F08F09927EE0F9795879508950E9433
:100AF000EF0508F481E008950E9483056894B11120
:100B00000C945E0608950E94430688F09F5798F063
:100B1000B92F9927B751B0F0E1F0660F771F881F02
:100B2000991F1AF0BA95C9F714C0B13091F00E941C
:100B30005D06B1E008950C945D06672F782F882735
:100B4000B85F39F0B93FCCF3869577956795B39543
:100B5000D9F73EF490958095709561957F4F8F4FB2
:100B60009F4F0895E89409C097FB3EF490958095B7
:100B7000709561957F4F8F4F9F4F9923A9F0F92F63
:100B800096E9BB279395F695879577956795B795E1
:100B9000F111F8CFFAF4BB0F11F460FF1BC06F5FC7
:100BA0007F4F8F4F9F4F16C0882311F096E911C0D9
:100BB000772321F09EE8872F762F05C0662371F0FA
:100BC00096E8862F70E060E02AF09A95660F771F0E
:100BD000881FDAF7880F9695879597F90895990FEA
:100BE0000008550FAA0BE0E8FEEF16161706E807F7
:100BF000F907C0F012161306E407F50798F0621B18
:100C0000730B840B950B39F40A2661F0232B242BEC
:100C1000252B21F408950A2609F4A140A6958FEF0B
:100C2000811D811D089597F99F6780E870E060E05D
:100C300008959FEF80EC089500240A941616170675
:100C400018060906089500240A94121613061406BD
:100C500005060895092E0394000C11F4882352F020
:100C6000BB0F40F4BF2B11F460FF04C06F5F7F4FD8
:100C70008F4F9F4F089557FD9058440F551F59F0BF
:100C80005F3F71F04795880F97FB991F61F09F3F79
:100C900079F087950895121613061406551FF2CFA2
:100CA0004695F1DF08C0161617061806991FF1CFF2
:100CB00086957105610508940895E894BB27662719
:100CC0007727CB0197F908950E94EF0508F48FEF7D
:100CD00008950E947C060C942A060E941C0638F097
:100CE0000E94230620F0952311F00C9413060C9417
:100CF000190611240C945E060E943B0670F3959F22
:100D0000C1F3950F50E0551F629FF001729FBB2702
:100D1000F00DB11D639FAA27F00DB11DAA1F649F9E
:100D20006627B00DA11D661F829F2227B00DA11D51
:100D3000621F739FB00DA11D621F839FA00D611DD7
:100D4000221F749F3327A00D611D231F849F600DF8
:100D5000211D822F762F6A2F11249F5750409AF021
:100D6000F1F088234AF0EE0FFF1FBB1F661F771FAD
:100D7000881F91505040A9F79E3F510580F00C9478
:100D800013060C945E065F3FE4F3983ED4F3869519
:100D900077956795B795F795E7959F5FC1F7FE2B18
:100DA000880F911D9695879597F908950E94EF05F4
:100DB000880B990B0895A1E21A2EAA1BBB1BFD01FB
:100DC0000DC0AA1FBB1FEE1FFF1FA217B307E4072A
:100DD000F50720F0A21BB30BE40BF50B661F771F82
:100DE000881F991F1A9469F7609570958095909562
:100DF0009B01AC01BD01CF010895EE0FFF1F0590CF
:100E0000F491E02D0994F894FFCF000000002C012C
:100E10008C00B9007901EA00C800DC0054656D70EF
:100E2000657261747572653A20006E616E00696E5C
:0E0E300066006F76660020C2B043000D0A0017
:107E0000112484B714BE81FFF0D085E080938100F7
:107E100082E08093C00088E18093C10086E0809377
:107E2000C20080E18093C4008EE0C9D0259A86E02C
:107E300020E33CEF91E0309385002093840096BBD3
:107E4000B09BFECF1D9AA8958150A9F7CC24DD24C4
:107E500088248394B5E0AB2EA1E19A2EF3E0BF2EE7
:107E6000A2D0813461F49FD0082FAFD0023811F036
:107E7000013811F484E001C083E08DD089C08234E0
:107E800011F484E103C0853419F485E0A6D080C0E4
:107E9000853579F488D0E82EFF2485D0082F10E0AE
:107EA000102F00270E291F29000F111F8ED06801E7
:107EB0006FC0863521F484E090D080E0DECF843638
:107EC00009F040C070D06FD0082F6DD080E0C81688
:107ED00080E7D80618F4F601B7BEE895C0E0D1E017
:107EE00062D089930C17E1F7F0E0CF16F0E7DF06D8
:107EF00018F0F601B7BEE89568D007B600FCFDCFD4
:107F0000A601A0E0B1E02C9130E011968C91119780
:107F100090E0982F8827822B932B1296FA010C0160
:107F200087BEE89511244E5F5F4FF1E0A038BF0790
:107F300051F7F601A7BEE89507B600FCFDCF97BE46
:107F4000E89526C08437B1F42ED02DD0F82E2BD052
:107F50003CD0F601EF2C8F010F5F1F4F84911BD097
:107F6000EA94F801C1F70894C11CD11CFA94CF0C13
:107F7000D11C0EC0853739F428D08EE10CD085E9AC
:107F80000AD08FE07ACF813511F488E018D01DD067
:107F900080E101D065CF982F8091C00085FFFCCF94
:107FA0009093C60008958091C00087FFFCCF809118
:107FB000C00084FD01C0A8958091C6000895E0E648
:107FC000F0E098E1908380830895EDDF803219F02E
:107FD00088E0F5DFFFCF84E1DECF1F93182FE3DFCA
:107FE0001150E9F7F2DF1F91089580E0E8DFEE27F6
:047FF000FF270994CA
:027FFE00040479
:00000001FF
